:020000040000FA
:0410000010EF08F0F5
:021004000000EA
:0410080068EF08F095
:041018006DEF08F080
:10102000806A3F0E926E0F0EC16E070EB46E816A1B
:10103000000E936E826A010E946E830ED56EA00E22
:10104000F26E6D966F8682A023EF08F080A836EFCF
:1010500008F02BEF08F082A023EF08F080AA38EC0C
:1010600008F080BA3AEC08F02BEF08F023EF08F014
:1010700081881200818A1200010E25628188819A7E
:101080008188818A8198818A8198819A819E81A0B4
:1010900046EF08F082B046EF08F04FEF08F081A06D
:1010A0004FEF08F082A04FEF08F0819E58EF08F054
:1010B000818EFF0E236EFF0E226E61EC08F046EF6C
:1010C00008F0222E61EF08F0232E61EF08F01200E5
:0E10D000F2A41000F2948170100000001000D5
:00000001FF
