:020000040000FA
:0410000010EF08F0F5
:021004000000EA
:0410080088EF08F075
:041018008DEF08F060
:10102000806A3F0E926E0F0EC16E070EB46E816A1B
:10103000000E936E826A010E946E830ED56EA00E22
:10104000F26E6D966F86010E256E256659EF08F0DB
:10105000010E256659EF08F0020E256661EF08F0D3
:10106000030E25666DEF08F01200040E25623BEFBB
:1010700008F04DEF08F0010E256241EF08F059EF3E
:1010800008F0020E256247EF08F061EF08F0030E4A
:10109000256235EF08F06DEF08F080BA81988188FD
:1010A00080BA818A819A010E256E75EC08F035EFC1
:1010B00008F08188818A020E256E75EC08F035EF04
:1010C00008F080BA8188819880BA819A818A030E5B
:1010D000256E75EC08F035EF08F08198819A040EC2
:1010E000256E75EC08F035EF08F0FF0E236EFF0E4D
:1010F000226E0F0E266E7EEC08F01200222E7EEF7E
:1011000008F0232E7EEF08F0262E7EEF08F0120066
:0E111000F2A41000F294817010000000100094
:00000001FF
